{
  "_format": "hh-sol-artifact-1",
  "contractName": "CreatorV1",
  "sourceName": "contracts/CreatorV1.sol",
  "abi": [
    {
      "anonymous": false,
      "inputs": [
        {
          "indexed": false,
          "internalType": "address",
          "name": "previousAdmin",
          "type": "address"
        },
        {
          "indexed": false,
          "internalType": "address",
          "name": "newAdmin",
          "type": "address"
        }
      ],
      "name": "AdminChanged",
      "type": "event"
    },
    {
      "anonymous": false,
      "inputs": [
        {
          "indexed": true,
          "internalType": "address",
          "name": "beacon",
          "type": "address"
        }
      ],
      "name": "BeaconUpgraded",
      "type": "event"
    },
    {
      "anonymous": false,
      "inputs": [
        {
          "indexed": false,
          "internalType": "address",
          "name": "owner",
          "type": "address"
        },
        {
          "indexed": false,
          "internalType": "string",
          "name": "uri",
          "type": "string"
        },
        {
          "indexed": false,
          "internalType": "uint256",
          "name": "royalty",
          "type": "uint256"
        },
        {
          "indexed": false,
          "internalType": "address",
          "name": "tokenAddress",
          "type": "address"
        }
      ],
      "name": "ERC1155Deployed",
      "type": "event"
    },
    {
      "anonymous": false,
      "inputs": [
        {
          "indexed": false,
          "internalType": "address",
          "name": "owner",
          "type": "address"
        },
        {
          "indexed": false,
          "internalType": "string",
          "name": "name",
          "type": "string"
        },
        {
          "indexed": false,
          "internalType": "string",
          "name": "symbol",
          "type": "string"
        },
        {
          "indexed": false,
          "internalType": "string",
          "name": "uri",
          "type": "string"
        },
        {
          "indexed": false,
          "internalType": "uint256",
          "name": "royalty",
          "type": "uint256"
        },
        {
          "indexed": false,
          "internalType": "address",
          "name": "tokenAddress",
          "type": "address"
        }
      ],
      "name": "ERC721Deployed",
      "type": "event"
    },
    {
      "anonymous": false,
      "inputs": [
        {
          "indexed": false,
          "internalType": "uint8",
          "name": "version",
          "type": "uint8"
        }
      ],
      "name": "Initialized",
      "type": "event"
    },
    {
      "anonymous": false,
      "inputs": [
        {
          "indexed": true,
          "internalType": "address",
          "name": "previousOwner",
          "type": "address"
        },
        {
          "indexed": true,
          "internalType": "address",
          "name": "newOwner",
          "type": "address"
        }
      ],
      "name": "OwnershipTransferred",
      "type": "event"
    },
    {
      "anonymous": false,
      "inputs": [
        {
          "indexed": true,
          "internalType": "address",
          "name": "implementation",
          "type": "address"
        }
      ],
      "name": "Upgraded",
      "type": "event"
    },
    {
      "inputs": [
        {
          "internalType": "string",
          "name": "uri_",
          "type": "string"
        },
        {
          "internalType": "uint256",
          "name": "royalty_",
          "type": "uint256"
        },
        {
          "internalType": "address",
          "name": "preSalePaymentToken_",
          "type": "address"
        }
      ],
      "name": "deployExtendedERC1155",
      "outputs": [
        {
          "internalType": "address",
          "name": "",
          "type": "address"
        }
      ],
      "stateMutability": "nonpayable",
      "type": "function"
    },
    {
      "inputs": [
        {
          "internalType": "string",
          "name": "name_",
          "type": "string"
        },
        {
          "internalType": "string",
          "name": "symbol_",
          "type": "string"
        },
        {
          "internalType": "string",
          "name": "uri_",
          "type": "string"
        },
        {
          "internalType": "uint256",
          "name": "royalty_",
          "type": "uint256"
        },
        {
          "internalType": "address",
          "name": "preSalePaymentToken_",
          "type": "address"
        }
      ],
      "name": "deployExtendedERC721",
      "outputs": [
        {
          "internalType": "address",
          "name": "",
          "type": "address"
        }
      ],
      "stateMutability": "nonpayable",
      "type": "function"
    },
    {
      "inputs": [
        {
          "internalType": "string",
          "name": "uri_",
          "type": "string"
        },
        {
          "internalType": "uint256",
          "name": "royalty_",
          "type": "uint256"
        }
      ],
      "name": "deploySimpleERC1155",
      "outputs": [
        {
          "internalType": "address",
          "name": "",
          "type": "address"
        }
      ],
      "stateMutability": "nonpayable",
      "type": "function"
    },
    {
      "inputs": [
        {
          "internalType": "string",
          "name": "name_",
          "type": "string"
        },
        {
          "internalType": "string",
          "name": "symbol_",
          "type": "string"
        },
        {
          "internalType": "string",
          "name": "uri_",
          "type": "string"
        },
        {
          "internalType": "uint256",
          "name": "royalty_",
          "type": "uint256"
        }
      ],
      "name": "deploySimpleERC721",
      "outputs": [
        {
          "internalType": "address",
          "name": "",
          "type": "address"
        }
      ],
      "stateMutability": "nonpayable",
      "type": "function"
    },
    {
      "inputs": [
        {
          "internalType": "address",
          "name": "",
          "type": "address"
        }
      ],
      "name": "deployedTokenContract",
      "outputs": [
        {
          "internalType": "bool",
          "name": "",
          "type": "bool"
        }
      ],
      "stateMutability": "view",
      "type": "function"
    },
    {
      "inputs": [],
      "name": "implementationAddress",
      "outputs": [
        {
          "internalType": "address",
          "name": "",
          "type": "address"
        }
      ],
      "stateMutability": "view",
      "type": "function"
    },
    {
      "inputs": [],
      "name": "initialize",
      "outputs": [],
      "stateMutability": "nonpayable",
      "type": "function"
    },
    {
      "inputs": [],
      "name": "lnMarketplaceAddress",
      "outputs": [
        {
          "internalType": "address",
          "name": "",
          "type": "address"
        }
      ],
      "stateMutability": "view",
      "type": "function"
    },
    {
      "inputs": [],
      "name": "owner",
      "outputs": [
        {
          "internalType": "address",
          "name": "",
          "type": "address"
        }
      ],
      "stateMutability": "view",
      "type": "function"
    },
    {
      "inputs": [],
      "name": "proxiableUUID",
      "outputs": [
        {
          "internalType": "bytes32",
          "name": "",
          "type": "bytes32"
        }
      ],
      "stateMutability": "view",
      "type": "function"
    },
    {
      "inputs": [],
      "name": "renounceOwnership",
      "outputs": [],
      "stateMutability": "nonpayable",
      "type": "function"
    },
    {
      "inputs": [
        {
          "internalType": "address",
          "name": "lnMarketplaceAddress_",
          "type": "address"
        },
        {
          "internalType": "contract ISimpleERC721Deployer",
          "name": "_simpleERC721Deployer",
          "type": "address"
        },
        {
          "internalType": "contract IExtendedERC721Deployer",
          "name": "_extendedERC721Deployer",
          "type": "address"
        },
        {
          "internalType": "contract ISimpleERC1155Deployer",
          "name": "_simpleERC1155Deployer",
          "type": "address"
        },
        {
          "internalType": "contract IExtendedERC1155Deployer",
          "name": "_extendedERC1155Deployer",
          "type": "address"
        }
      ],
      "name": "setMarketplaceAndDeployers",
      "outputs": [],
      "stateMutability": "nonpayable",
      "type": "function"
    },
    {
      "inputs": [
        {
          "internalType": "address",
          "name": "newOwner",
          "type": "address"
        }
      ],
      "name": "transferOwnership",
      "outputs": [],
      "stateMutability": "nonpayable",
      "type": "function"
    },
    {
      "inputs": [
        {
          "internalType": "address",
          "name": "newImplementation",
          "type": "address"
        }
      ],
      "name": "upgradeTo",
      "outputs": [],
      "stateMutability": "nonpayable",
      "type": "function"
    },
    {
      "inputs": [
        {
          "internalType": "address",
          "name": "newImplementation",
          "type": "address"
        },
        {
          "internalType": "bytes",
          "name": "data",
          "type": "bytes"
        }
      ],
      "name": "upgradeToAndCall",
      "outputs": [],
      "stateMutability": "payable",
      "type": "function"
    }
  ],
  "bytecode": "0x60a06040523060805234801561001457600080fd5b5060805161179161004c600039600081816104430152818161048c015281816105150152818161055501526105d101526117916000f3fe6080604052600436106100e85760003560e01c80638129fc1c1161008a578063c02a496a11610059578063c02a496a1461025f578063f1a03dfe1461027f578063f2fde38b1461029f578063fa79b095146102bf57600080fd5b80638129fc1c146101f75780638da5cb5b1461020c578063b66ea3eb1461022a578063b97a23191461024a57600080fd5b806340a42ce7116100c657806340a42ce71461016c5780634f1ef286146101ac57806352d1902d146101bf578063715018a6146101e257600080fd5b80632879bc31146100ed57806333aed4031461012a5780633659cfe61461014c575b600080fd5b3480156100f957600080fd5b5061010d6101083660046110c6565b6102df565b6040516001600160a01b0390911681526020015b60405180910390f35b34801561013657600080fd5b5061014a610145366004611121565b6103d1565b005b34801561015857600080fd5b5061014a610167366004611192565b610438565b34801561017857600080fd5b5061019c610187366004611192565b60ca6020526000908152604090205460ff1681565b6040519015158152602001610121565b61014a6101ba3660046111af565b61050a565b3480156101cb57600080fd5b506101d46105c4565b604051908152602001610121565b3480156101ee57600080fd5b5061014a610677565b34801561020357600080fd5b5061014a61068b565b34801561021857600080fd5b506033546001600160a01b031661010d565b34801561023657600080fd5b5061010d610245366004611213565b6107a3565b34801561025657600080fd5b5061010d610890565b34801561026b57600080fd5b5061010d61027a366004611258565b61089f565b34801561028b57600080fd5b5061010d61029a3660046112f1565b610999565b3480156102ab57600080fd5b5061014a6102ba366004611192565b610a90565b3480156102cb57600080fd5b5060c95461010d906001600160a01b031681565b60ce5460c954604051630f8226cb60e41b815260009283926001600160a01b039182169263f8226cb0926103209233929116908a908a908a906004016113d9565b6020604051808303816000875af115801561033f573d6000803e3d6000fd5b505050506040513d601f19601f82011682018060405250810190610363919061141d565b6001600160a01b038116600090815260ca602052604090819020805460ff19166001179055519091507f68610941fd434c97daafc2036f64e3aea3ad9ffbb6cd0af66b3da807dd04a848906103bf90339088908890869061143a565b60405180910390a190505b9392505050565b6103d9610b06565b60c980546001600160a01b03199081166001600160a01b039788161790915560cb805482169587169590951790945560cc805485169386169390931790925560cd8054841691851691909117905560ce80549092169216919091179055565b306001600160a01b037f000000000000000000000000000000000000000000000000000000000000000016141561048a5760405162461bcd60e51b815260040161048190611475565b60405180910390fd5b7f00000000000000000000000000000000000000000000000000000000000000006001600160a01b03166104bc610b60565b6001600160a01b0316146104e25760405162461bcd60e51b8152600401610481906114c1565b6104eb81610b7c565b6040805160008082526020820190925261050791839190610b84565b50565b306001600160a01b037f00000000000000000000000000000000000000000000000000000000000000001614156105535760405162461bcd60e51b815260040161048190611475565b7f00000000000000000000000000000000000000000000000000000000000000006001600160a01b0316610585610b60565b6001600160a01b0316146105ab5760405162461bcd60e51b8152600401610481906114c1565b6105b482610b7c565b6105c082826001610b84565b5050565b6000306001600160a01b037f000000000000000000000000000000000000000000000000000000000000000016146106645760405162461bcd60e51b815260206004820152603860248201527f555550535570677261646561626c653a206d757374206e6f742062652063616c60448201527f6c6564207468726f7567682064656c656761746563616c6c00000000000000006064820152608401610481565b5060008051602061171583398151915290565b61067f610b06565b6106896000610cf4565b565b600054610100900460ff16158080156106ab5750600054600160ff909116105b806106c55750303b1580156106c5575060005460ff166001145b6107285760405162461bcd60e51b815260206004820152602e60248201527f496e697469616c697a61626c653a20636f6e747261637420697320616c72656160448201526d191e481a5b9a5d1a585b1a5e995960921b6064820152608401610481565b6000805460ff19166001179055801561074b576000805461ff0019166101001790555b610753610d46565b61075b610d75565b8015610507576000805461ff0019169055604051600181527f7f26b83ff96e1f2b6a682f133852f6798a09c465da95921460cefb38474024989060200160405180910390a150565b60cd5460c954604051631c208c0b60e11b815260009283926001600160a01b03918216926338411816926107e29233929116908990899060040161150d565b6020604051808303816000875af1158015610801573d6000803e3d6000fd5b505050506040513d601f19601f82011682018060405250810190610825919061141d565b6001600160a01b038116600090815260ca602052604090819020805460ff19166001179055519091507f68610941fd434c97daafc2036f64e3aea3ad9ffbb6cd0af66b3da807dd04a8489061088190339087908790869061143a565b60405180910390a19392505050565b600061089a610b60565b905090565b60cc5460c954604051630b02847160e31b815260009283926001600160a01b03918216926358142388926108e49233929116908c908c908c908c908c9060040161154a565b6020604051808303816000875af1158015610903573d6000803e3d6000fd5b505050506040513d601f19601f82011682018060405250810190610927919061141d565b6001600160a01b038116600090815260ca602052604090819020805460ff19166001179055519091507f839624e3ed3f092e07a7f1877fb50696be84150bc2c70c94b3184b8415ec5c2a906109879033908a908a908a908a9088906115b7565b60405180910390a19695505050505050565b60cb5460c9546040516394dfa38360e01b815260009283926001600160a01b03918216926394dfa383926109dc9233929116908b908b908b908b9060040161161b565b6020604051808303816000875af11580156109fb573d6000803e3d6000fd5b505050506040513d601f19601f82011682018060405250810190610a1f919061141d565b6001600160a01b038116600090815260ca602052604090819020805460ff19166001179055519091507f839624e3ed3f092e07a7f1877fb50696be84150bc2c70c94b3184b8415ec5c2a90610a7f903390899089908990899088906115b7565b60405180910390a195945050505050565b610a98610b06565b6001600160a01b038116610afd5760405162461bcd60e51b815260206004820152602660248201527f4f776e61626c653a206e6577206f776e657220697320746865207a65726f206160448201526564647265737360d01b6064820152608401610481565b61050781610cf4565b6033546001600160a01b031633146106895760405162461bcd60e51b815260206004820181905260248201527f4f776e61626c653a2063616c6c6572206973206e6f7420746865206f776e65726044820152606401610481565b600080516020611715833981519152546001600160a01b031690565b610507610b06565b7f4910fdfa16fed3260ed0e7147f7cc6da11a60208b5b9406d12a635614ffd91435460ff1615610bbc57610bb783610d9c565b505050565b826001600160a01b03166352d1902d6040518163ffffffff1660e01b8152600401602060405180830381865afa925050508015610c16575060408051601f3d908101601f19168201909252610c1391810190611681565b60015b610c795760405162461bcd60e51b815260206004820152602e60248201527f45524331393637557067726164653a206e657720696d706c656d656e7461746960448201526d6f6e206973206e6f74205555505360901b6064820152608401610481565b6000805160206117158339815191528114610ce85760405162461bcd60e51b815260206004820152602960248201527f45524331393637557067726164653a20756e737570706f727465642070726f786044820152681a58589b195555525160ba1b6064820152608401610481565b50610bb7838383610e38565b603380546001600160a01b038381166001600160a01b0319831681179093556040519116919082907f8be0079c531659141344cd1fd0a4f28419497f9722a3daafe3b4186f6b6457e090600090a35050565b600054610100900460ff16610d6d5760405162461bcd60e51b81526004016104819061169a565b610689610e63565b600054610100900460ff166106895760405162461bcd60e51b81526004016104819061169a565b6001600160a01b0381163b610e095760405162461bcd60e51b815260206004820152602d60248201527f455243313936373a206e657720696d706c656d656e746174696f6e206973206e60448201526c1bdd08184818dbdb9d1c9858dd609a1b6064820152608401610481565b60008051602061171583398151915280546001600160a01b0319166001600160a01b0392909216919091179055565b610e4183610e93565b600082511180610e4e5750805b15610bb757610e5d8383610ed3565b50505050565b600054610100900460ff16610e8a5760405162461bcd60e51b81526004016104819061169a565b61068933610cf4565b610e9c81610d9c565b6040516001600160a01b038216907fbc7cd75a20ee27fd9adebab32041f755214dbc6bffa90cc0225b39da2e5c2d3b90600090a250565b60606001600160a01b0383163b610f3b5760405162461bcd60e51b815260206004820152602660248201527f416464726573733a2064656c65676174652063616c6c20746f206e6f6e2d636f6044820152651b9d1c9858dd60d21b6064820152608401610481565b600080846001600160a01b031684604051610f5691906116e5565b600060405180830381855af49150503d8060008114610f91576040519150601f19603f3d011682016040523d82523d6000602084013e610f96565b606091505b5091509150610fbe828260405180606001604052806027815260200161173560279139610fc7565b95945050505050565b60608315610fd65750816103ca565b6103ca8383815115610feb5781518083602001fd5b8060405162461bcd60e51b81526004016104819190611701565b634e487b7160e01b600052604160045260246000fd5b600067ffffffffffffffff8084111561103657611036611005565b604051601f8501601f19908116603f0116810190828211818310171561105e5761105e611005565b8160405280935085815286868601111561107757600080fd5b858560208301376000602087830101525050509392505050565b600082601f8301126110a257600080fd5b6103ca8383356020850161101b565b6001600160a01b038116811461050757600080fd5b6000806000606084860312156110db57600080fd5b833567ffffffffffffffff8111156110f257600080fd5b6110fe86828701611091565b935050602084013591506040840135611116816110b1565b809150509250925092565b600080600080600060a0868803121561113957600080fd5b8535611144816110b1565b94506020860135611154816110b1565b93506040860135611164816110b1565b92506060860135611174816110b1565b91506080860135611184816110b1565b809150509295509295909350565b6000602082840312156111a457600080fd5b81356103ca816110b1565b600080604083850312156111c257600080fd5b82356111cd816110b1565b9150602083013567ffffffffffffffff8111156111e957600080fd5b8301601f810185136111fa57600080fd5b6112098582356020840161101b565b9150509250929050565b6000806040838503121561122657600080fd5b823567ffffffffffffffff81111561123d57600080fd5b61124985828601611091565b95602094909401359450505050565b600080600080600060a0868803121561127057600080fd5b853567ffffffffffffffff8082111561128857600080fd5b61129489838a01611091565b965060208801359150808211156112aa57600080fd5b6112b689838a01611091565b955060408801359150808211156112cc57600080fd5b506112d988828901611091565b935050606086013591506080860135611184816110b1565b6000806000806080858703121561130757600080fd5b843567ffffffffffffffff8082111561131f57600080fd5b61132b88838901611091565b9550602087013591508082111561134157600080fd5b61134d88838901611091565b9450604087013591508082111561136357600080fd5b5061137087828801611091565b949793965093946060013593505050565b60005b8381101561139c578181015183820152602001611384565b83811115610e5d5750506000910152565b600081518084526113c5816020860160208601611381565b601f01601f19169290920160200192915050565b600060018060a01b038088168352808716602084015260a0604084015261140360a08401876113ad565b606084019590955292909216608090910152509392505050565b60006020828403121561142f57600080fd5b81516103ca816110b1565b600060018060a01b0380871683526080602084015261145c60808401876113ad565b6040840195909552929092166060909101525092915050565b6020808252602c908201527f46756e6374696f6e206d7573742062652063616c6c6564207468726f7567682060408201526b19195b1959d85d1958d85b1b60a21b606082015260800190565b6020808252602c908201527f46756e6374696f6e206d7573742062652063616c6c6564207468726f7567682060408201526b6163746976652070726f787960a01b606082015260800190565b6001600160a01b03858116825284166020820152608060408201819052600090611539908301856113ad565b905082606083015295945050505050565b600060018060a01b03808a168352808916602084015260e0604084015261157460e08401896113ad565b838103606085015261158681896113ad565b9050838103608085015261159a81886113ad565b60a0850196909652509290921660c0909101525095945050505050565b600060018060a01b03808916835260c060208401526115d960c08401896113ad565b83810360408501526115eb81896113ad565b905083810360608501526115ff81886113ad565b6080850196909652509290921660a09091015250949350505050565b6001600160a01b0387811682528616602082015260c060408201819052600090611647908301876113ad565b828103606084015261165981876113ad565b9050828103608084015261166d81866113ad565b9150508260a0830152979650505050505050565b60006020828403121561169357600080fd5b5051919050565b6020808252602b908201527f496e697469616c697a61626c653a20636f6e7472616374206973206e6f74206960408201526a6e697469616c697a696e6760a81b606082015260800190565b600082516116f7818460208701611381565b9190910192915050565b6020815260006103ca60208301846113ad56fe360894a13ba1a3210667c828492db98dca3e2076cc3735a920a3ca505d382bbc416464726573733a206c6f772d6c6576656c2064656c65676174652063616c6c206661696c6564a26469706673582212207758e45d94399288564798acaa017a0e06335ae48e959377e851a7cb927f0cfe64736f6c634300080a0033",
  "linkReferences": {},
  "deployedLinkReferences": {}
}