{
  "_format": "hh-sol-artifact-1",
  "contractName": "SimpleERC721",
  "sourceName": "contracts/SimpleERC721.sol",
  "abi": [
    {
      "inputs": [
        {
          "internalType": "address",
          "name": "owner_",
          "type": "address"
        },
        {
          "internalType": "address",
          "name": "lnMarketplaceAddress_",
          "type": "address"
        },
        {
          "internalType": "string",
          "name": "name_",
          "type": "string"
        },
        {
          "internalType": "string",
          "name": "symbol_",
          "type": "string"
        },
        {
          "internalType": "string",
          "name": "uri_",
          "type": "string"
        },
        {
          "internalType": "uint256",
          "name": "royalty_",
          "type": "uint256"
        }
      ],
      "stateMutability": "nonpayable",
      "type": "constructor"
    },
    {
      "anonymous": false,
      "inputs": [
        {
          "indexed": true,
          "internalType": "address",
          "name": "owner",
          "type": "address"
        },
        {
          "indexed": true,
          "internalType": "address",
          "name": "approved",
          "type": "address"
        },
        {
          "indexed": true,
          "internalType": "uint256",
          "name": "tokenId",
          "type": "uint256"
        }
      ],
      "name": "Approval",
      "type": "event"
    },
    {
      "anonymous": false,
      "inputs": [
        {
          "indexed": true,
          "internalType": "address",
          "name": "owner",
          "type": "address"
        },
        {
          "indexed": true,
          "internalType": "address",
          "name": "operator",
          "type": "address"
        },
        {
          "indexed": false,
          "internalType": "bool",
          "name": "approved",
          "type": "bool"
        }
      ],
      "name": "ApprovalForAll",
      "type": "event"
    },
    {
      "anonymous": false,
      "inputs": [
        {
          "indexed": true,
          "internalType": "address",
          "name": "previousOwner",
          "type": "address"
        },
        {
          "indexed": true,
          "internalType": "address",
          "name": "newOwner",
          "type": "address"
        }
      ],
      "name": "OwnershipTransferred",
      "type": "event"
    },
    {
      "anonymous": false,
      "inputs": [
        {
          "indexed": true,
          "internalType": "address",
          "name": "from",
          "type": "address"
        },
        {
          "indexed": true,
          "internalType": "address",
          "name": "to",
          "type": "address"
        },
        {
          "indexed": true,
          "internalType": "uint256",
          "name": "tokenId",
          "type": "uint256"
        }
      ],
      "name": "Transfer",
      "type": "event"
    },
    {
      "anonymous": false,
      "inputs": [
        {
          "indexed": false,
          "internalType": "string",
          "name": "_uri",
          "type": "string"
        }
      ],
      "name": "UpdatedURI",
      "type": "event"
    },
    {
      "inputs": [
        {
          "internalType": "address",
          "name": "to",
          "type": "address"
        },
        {
          "internalType": "uint256",
          "name": "tokenId",
          "type": "uint256"
        }
      ],
      "name": "approve",
      "outputs": [],
      "stateMutability": "nonpayable",
      "type": "function"
    },
    {
      "inputs": [
        {
          "internalType": "address",
          "name": "owner",
          "type": "address"
        }
      ],
      "name": "balanceOf",
      "outputs": [
        {
          "internalType": "uint256",
          "name": "",
          "type": "uint256"
        }
      ],
      "stateMutability": "view",
      "type": "function"
    },
    {
      "inputs": [],
      "name": "baseURI",
      "outputs": [
        {
          "internalType": "string",
          "name": "",
          "type": "string"
        }
      ],
      "stateMutability": "view",
      "type": "function"
    },
    {
      "inputs": [],
      "name": "disableRoyalty",
      "outputs": [],
      "stateMutability": "nonpayable",
      "type": "function"
    },
    {
      "inputs": [],
      "name": "disableRoyaltyDistribution",
      "outputs": [],
      "stateMutability": "nonpayable",
      "type": "function"
    },
    {
      "inputs": [],
      "name": "enableRoyalty",
      "outputs": [],
      "stateMutability": "nonpayable",
      "type": "function"
    },
    {
      "inputs": [],
      "name": "enableRoyaltyDistribution",
      "outputs": [],
      "stateMutability": "nonpayable",
      "type": "function"
    },
    {
      "inputs": [
        {
          "internalType": "uint256",
          "name": "tokenId",
          "type": "uint256"
        }
      ],
      "name": "exists",
      "outputs": [
        {
          "internalType": "bool",
          "name": "",
          "type": "bool"
        }
      ],
      "stateMutability": "view",
      "type": "function"
    },
    {
      "inputs": [
        {
          "internalType": "bool",
          "name": "_forbidden",
          "type": "bool"
        }
      ],
      "name": "forbidToTradeOnOtherMarketplaces",
      "outputs": [],
      "stateMutability": "nonpayable",
      "type": "function"
    },
    {
      "inputs": [
        {
          "internalType": "uint256",
          "name": "tokenId",
          "type": "uint256"
        }
      ],
      "name": "getApproved",
      "outputs": [
        {
          "internalType": "address",
          "name": "",
          "type": "address"
        }
      ],
      "stateMutability": "view",
      "type": "function"
    },
    {
      "inputs": [],
      "name": "getDefaultRoyaltyDistribution",
      "outputs": [
        {
          "components": [
            {
              "internalType": "address",
              "name": "collaborator",
              "type": "address"
            },
            {
              "internalType": "uint256",
              "name": "share",
              "type": "uint256"
            }
          ],
          "internalType": "struct RoyaltyDistribution.RoyaltyShare[]",
          "name": "",
          "type": "tuple[]"
        }
      ],
      "stateMutability": "view",
      "type": "function"
    },
    {
      "inputs": [
        {
          "internalType": "uint256",
          "name": "tokenId",
          "type": "uint256"
        }
      ],
      "name": "getTokenRoyaltyDistribution",
      "outputs": [
        {
          "components": [
            {
              "internalType": "address",
              "name": "collaborator",
              "type": "address"
            },
            {
              "internalType": "uint256",
              "name": "share",
              "type": "uint256"
            }
          ],
          "internalType": "struct RoyaltyDistribution.RoyaltyShare[]",
          "name": "",
          "type": "tuple[]"
        }
      ],
      "stateMutability": "view",
      "type": "function"
    },
    {
      "inputs": [],
      "name": "globalRoyalty",
      "outputs": [
        {
          "internalType": "uint256",
          "name": "",
          "type": "uint256"
        }
      ],
      "stateMutability": "view",
      "type": "function"
    },
    {
      "inputs": [],
      "name": "globalRoyaltyEnabled",
      "outputs": [
        {
          "internalType": "bool",
          "name": "",
          "type": "bool"
        }
      ],
      "stateMutability": "view",
      "type": "function"
    },
    {
      "inputs": [
        {
          "internalType": "address",
          "name": "owner",
          "type": "address"
        },
        {
          "internalType": "address",
          "name": "operator",
          "type": "address"
        }
      ],
      "name": "isApprovedForAll",
      "outputs": [
        {
          "internalType": "bool",
          "name": "",
          "type": "bool"
        }
      ],
      "stateMutability": "view",
      "type": "function"
    },
    {
      "inputs": [
        {
          "internalType": "address",
          "name": "to",
          "type": "address"
        },
        {
          "internalType": "uint256",
          "name": "tokenId",
          "type": "uint256"
        }
      ],
      "name": "lazyMint",
      "outputs": [],
      "stateMutability": "nonpayable",
      "type": "function"
    },
    {
      "inputs": [],
      "name": "lnMarketplaceAddress",
      "outputs": [
        {
          "internalType": "address",
          "name": "",
          "type": "address"
        }
      ],
      "stateMutability": "view",
      "type": "function"
    },
    {
      "inputs": [
        {
          "internalType": "address",
          "name": "to",
          "type": "address"
        },
        {
          "internalType": "uint256",
          "name": "tokenId",
          "type": "uint256"
        }
      ],
      "name": "mint",
      "outputs": [],
      "stateMutability": "nonpayable",
      "type": "function"
    },
    {
      "inputs": [],
      "name": "name",
      "outputs": [
        {
          "internalType": "string",
          "name": "",
          "type": "string"
        }
      ],
      "stateMutability": "view",
      "type": "function"
    },
    {
      "inputs": [],
      "name": "owner",
      "outputs": [
        {
          "internalType": "address",
          "name": "",
          "type": "address"
        }
      ],
      "stateMutability": "view",
      "type": "function"
    },
    {
      "inputs": [
        {
          "internalType": "uint256",
          "name": "tokenId",
          "type": "uint256"
        }
      ],
      "name": "ownerOf",
      "outputs": [
        {
          "internalType": "address",
          "name": "",
          "type": "address"
        }
      ],
      "stateMutability": "view",
      "type": "function"
    },
    {
      "inputs": [],
      "name": "renounceOwnership",
      "outputs": [],
      "stateMutability": "nonpayable",
      "type": "function"
    },
    {
      "inputs": [],
      "name": "royaltyDistributionEnabled",
      "outputs": [
        {
          "internalType": "bool",
          "name": "",
          "type": "bool"
        }
      ],
      "stateMutability": "view",
      "type": "function"
    },
    {
      "inputs": [
        {
          "internalType": "uint256",
          "name": "_tokenId",
          "type": "uint256"
        },
        {
          "internalType": "uint256",
          "name": "_salePrice",
          "type": "uint256"
        }
      ],
      "name": "royaltyInfo",
      "outputs": [
        {
          "internalType": "address",
          "name": "receiver",
          "type": "address"
        },
        {
          "internalType": "uint256",
          "name": "royaltyAmount",
          "type": "uint256"
        }
      ],
      "stateMutability": "view",
      "type": "function"
    },
    {
      "inputs": [],
      "name": "royaltyReceiver",
      "outputs": [
        {
          "internalType": "address",
          "name": "",
          "type": "address"
        }
      ],
      "stateMutability": "view",
      "type": "function"
    },
    {
      "inputs": [
        {
          "internalType": "address",
          "name": "from",
          "type": "address"
        },
        {
          "internalType": "address",
          "name": "to",
          "type": "address"
        },
        {
          "internalType": "uint256",
          "name": "tokenId",
          "type": "uint256"
        }
      ],
      "name": "safeTransferFrom",
      "outputs": [],
      "stateMutability": "nonpayable",
      "type": "function"
    },
    {
      "inputs": [
        {
          "internalType": "address",
          "name": "from",
          "type": "address"
        },
        {
          "internalType": "address",
          "name": "to",
          "type": "address"
        },
        {
          "internalType": "uint256",
          "name": "tokenId",
          "type": "uint256"
        },
        {
          "internalType": "bytes",
          "name": "data",
          "type": "bytes"
        }
      ],
      "name": "safeTransferFrom",
      "outputs": [],
      "stateMutability": "nonpayable",
      "type": "function"
    },
    {
      "inputs": [
        {
          "internalType": "address",
          "name": "operator",
          "type": "address"
        },
        {
          "internalType": "bool",
          "name": "approved",
          "type": "bool"
        }
      ],
      "name": "setApprovalForAll",
      "outputs": [],
      "stateMutability": "nonpayable",
      "type": "function"
    },
    {
      "inputs": [
        {
          "internalType": "address[]",
          "name": "collaborators",
          "type": "address[]"
        },
        {
          "internalType": "uint256[]",
          "name": "shares",
          "type": "uint256[]"
        }
      ],
      "name": "setDefaultRoyaltyDistribution",
      "outputs": [],
      "stateMutability": "nonpayable",
      "type": "function"
    },
    {
      "inputs": [
        {
          "internalType": "uint256",
          "name": "_royalty",
          "type": "uint256"
        }
      ],
      "name": "setGlobalRoyalty",
      "outputs": [],
      "stateMutability": "nonpayable",
      "type": "function"
    },
    {
      "inputs": [
        {
          "internalType": "address",
          "name": "newRoyaltyReceiver",
          "type": "address"
        }
      ],
      "name": "setRoyaltyReceiver",
      "outputs": [],
      "stateMutability": "nonpayable",
      "type": "function"
    },
    {
      "inputs": [
        {
          "internalType": "uint256",
          "name": "_royalty",
          "type": "uint256"
        },
        {
          "internalType": "uint256",
          "name": "_tokenId",
          "type": "uint256"
        }
      ],
      "name": "setTokenRoyalty",
      "outputs": [],
      "stateMutability": "nonpayable",
      "type": "function"
    },
    {
      "inputs": [
        {
          "internalType": "address[]",
          "name": "collaborators",
          "type": "address[]"
        },
        {
          "internalType": "uint256[]",
          "name": "shares",
          "type": "uint256[]"
        },
        {
          "internalType": "uint256",
          "name": "tokenId",
          "type": "uint256"
        }
      ],
      "name": "setTokenRoyaltyDistribution",
      "outputs": [],
      "stateMutability": "nonpayable",
      "type": "function"
    },
    {
      "inputs": [
        {
          "internalType": "string",
          "name": "uri_",
          "type": "string"
        }
      ],
      "name": "setURI",
      "outputs": [],
      "stateMutability": "nonpayable",
      "type": "function"
    },
    {
      "inputs": [
        {
          "internalType": "bytes4",
          "name": "interfaceId",
          "type": "bytes4"
        }
      ],
      "name": "supportsInterface",
      "outputs": [
        {
          "internalType": "bool",
          "name": "",
          "type": "bool"
        }
      ],
      "stateMutability": "view",
      "type": "function"
    },
    {
      "inputs": [],
      "name": "symbol",
      "outputs": [
        {
          "internalType": "string",
          "name": "",
          "type": "string"
        }
      ],
      "stateMutability": "view",
      "type": "function"
    },
    {
      "inputs": [
        {
          "internalType": "uint256",
          "name": "",
          "type": "uint256"
        },
        {
          "internalType": "uint256",
          "name": "",
          "type": "uint256"
        }
      ],
      "name": "tokenCollaboratorsRoyaltyShare",
      "outputs": [
        {
          "internalType": "address",
          "name": "collaborator",
          "type": "address"
        },
        {
          "internalType": "uint256",
          "name": "share",
          "type": "uint256"
        }
      ],
      "stateMutability": "view",
      "type": "function"
    },
    {
      "inputs": [
        {
          "internalType": "uint256",
          "name": "",
          "type": "uint256"
        }
      ],
      "name": "tokenRoyalty",
      "outputs": [
        {
          "internalType": "uint256",
          "name": "",
          "type": "uint256"
        }
      ],
      "stateMutability": "view",
      "type": "function"
    },
    {
      "inputs": [
        {
          "internalType": "uint256",
          "name": "tokenId",
          "type": "uint256"
        }
      ],
      "name": "tokenURI",
      "outputs": [
        {
          "internalType": "string",
          "name": "",
          "type": "string"
        }
      ],
      "stateMutability": "view",
      "type": "function"
    },
    {
      "inputs": [
        {
          "internalType": "address",
          "name": "from",
          "type": "address"
        },
        {
          "internalType": "address",
          "name": "to",
          "type": "address"
        },
        {
          "internalType": "uint256",
          "name": "tokenId",
          "type": "uint256"
        }
      ],
      "name": "transferFrom",
      "outputs": [],
      "stateMutability": "nonpayable",
      "type": "function"
    },
    {
      "inputs": [
        {
          "internalType": "address",
          "name": "newOwner",
          "type": "address"
        }
      ],
      "name": "transferOwnership",
      "outputs": [],
      "stateMutability": "nonpayable",
      "type": "function"
    }
  ],
  "bytecode": "0x60806040526000805461ffff60a01b191661010160a01b179055600d805460ff60a01b191690553480156200003357600080fd5b506040516200291f3803806200291f8339810160408190526200005691620003bf565b85858585858583836200006933620000fe565b81516200007e9060069060208501906200022f565b508051620000949060079060208401906200022f565b50508251620000ac9150600c9060208501906200022f565b506001819055620000bd866200014e565b5050600580546001600160a01b039586166001600160a01b031991821617909155600d80549490951693169290921790925550620004bc9650505050505050565b600080546001600160a01b038381166001600160a01b0319831681178455604051919092169283917f8be0079c531659141344cd1fd0a4f28419497f9722a3daafe3b4186f6b6457e09190a35050565b62000158620001d1565b6001600160a01b038116620001c35760405162461bcd60e51b815260206004820152602660248201527f4f776e61626c653a206e6577206f776e657220697320746865207a65726f206160448201526564647265737360d01b60648201526084015b60405180910390fd5b620001ce81620000fe565b50565b6000546001600160a01b031633146200022d5760405162461bcd60e51b815260206004820181905260248201527f4f776e61626c653a2063616c6c6572206973206e6f7420746865206f776e65726044820152606401620001ba565b565b8280546200023d906200047f565b90600052602060002090601f016020900481019282620002615760008555620002ac565b82601f106200027c57805160ff1916838001178555620002ac565b82800160010185558215620002ac579182015b82811115620002ac5782518255916020019190600101906200028f565b50620002ba929150620002be565b5090565b5b80821115620002ba5760008155600101620002bf565b80516001600160a01b0381168114620002ed57600080fd5b919050565b634e487b7160e01b600052604160045260246000fd5b600082601f8301126200031a57600080fd5b81516001600160401b0380821115620003375762000337620002f2565b604051601f8301601f19908116603f01168101908282118183101715620003625762000362620002f2565b816040528381526020925086838588010111156200037f57600080fd5b600091505b83821015620003a3578582018301518183018401529082019062000384565b83821115620003b55760008385830101525b9695505050505050565b60008060008060008060c08789031215620003d957600080fd5b620003e487620002d5565b9550620003f460208801620002d5565b60408801519095506001600160401b03808211156200041257600080fd5b620004208a838b0162000308565b955060608901519150808211156200043757600080fd5b620004458a838b0162000308565b945060808901519150808211156200045c57600080fd5b506200046b89828a0162000308565b92505060a087015190509295509295509295565b600181811c908216806200049457607f821691505b60208210811415620004b657634e487b7160e01b600052602260045260246000fd5b50919050565b61245380620004cc6000396000f3fe608060405234801561001057600080fd5b50600436106102535760003560e01c80636352211e11610146578063a22cb465116100c3578063e8c1520511610087578063e8c152051461051c578063e985e9c514610530578063ee2dd6d11461056c578063f2fde38b14610574578063f8ef6b7114610587578063fa79b0951461058f57600080fd5b8063a22cb465146104bd578063b0de83a3146104d0578063b88d4fde146104e3578063bc189d38146104f6578063c87b56dd1461050957600080fd5b80638dc251e31161010a5780638dc251e31461047f57806395d89b41146104925780639fbc87131461049a5780639fc28f81146104ad578063a0c7489d146104b557600080fd5b80636352211e146104385780636c0360eb1461044b57806370a0823114610453578063715018a6146104665780638da5cb5b1461046e57600080fd5b80632a55205a116101d457806348375f841161019857806348375f84146103d6578063483b81ef146103f657806349d72147146103ff5780634e6836ab146104125780634f558e791461042557600080fd5b80632a55205a14610363578063336b44bb1461039557806340c10f19146103a857806342842e0e146103bb57806344537520146103ce57600080fd5b8063095ea7b31161021b578063095ea7b3146102e957806313036577146102fc5780631763b4a81461030f5780631ff4a4201461032257806323b872dd1461035057600080fd5b8063012e46b61461025857806301ffc9a71461028157806302fe53051461029457806306fdde03146102a9578063081812fc146102be575b600080fd5b60005461026c90600160a81b900460ff1681565b60405190151581526020015b60405180910390f35b61026c61028f366004611d30565b6105a2565b6102a76102a2366004611dd9565b610603565b005b6102b1610659565b6040516102789190611e7a565b6102d16102cc366004611e8d565b6106eb565b6040516001600160a01b039091168152602001610278565b6102a76102f7366004611ec2565b610712565b6102a761030a366004611efc565b61082d565b6102a761031d366004611f5c565b6108e3565b610342610330366004611e8d565b60026020526000908152604090205481565b604051908152602001610278565b6102a761035e366004611fc8565b610a8e565b610376610371366004612004565b610abf565b604080516001600160a01b039093168352602083019190915201610278565b6102a76103a3366004611ec2565b610b44565b6102a76103b6366004611ec2565b610b9b565b6102a76103c9366004611fc8565b610ba3565b6102a7610bbe565b6103e96103e4366004611e8d565b610bdb565b6040516102789190612026565b61034260015481565b61037661040d366004612004565b610c63565b6102a761042036600461207e565b610ca9565b61026c610433366004611e8d565b610e71565b6102d1610446366004611e8d565b610e90565b6102b1610ef0565b6103426104613660046120f2565b610eff565b6102a7610f85565b6000546001600160a01b03166102d1565b6102a761048d3660046120f2565b610f99565b6102b1611077565b6005546102d1906001600160a01b031681565b6103e9611086565b6102a76110fb565b6102a76104cb36600461210d565b611118565b6102a76104de366004611e8d565b611123565b6102a76104f1366004612140565b611178565b6102a7610504366004612004565b6111b0565b6102b1610517366004611e8d565b611211565b60005461026c90600160a01b900460ff1681565b61026c61053e3660046121bc565b6001600160a01b039182166000908152600b6020908152604080832093909416825291909152205460ff1690565b6102a761126f565b6102a76105823660046120f2565b611286565b6102a76112ff565b600d546102d1906001600160a01b031681565b60006001600160e01b0319821663152a902d60e11b14806105d357506001600160e01b0319821663f19b019960e01b145b806105ee57506001600160e01b03198216631189900560e11b145b806105fd57506105fd82611316565b92915050565b61060b611366565b805161061e90600c906020840190611c3a565b507fbabd00c52f3ac8b66511ad0c5d9680f0417ad32bf6c8fede4cb2d45820353bc58160405161064e9190611e7a565b60405180910390a150565b606060068054610668906121e6565b80601f0160208091040260200160405190810160405280929190818152602001828054610694906121e6565b80156106e15780601f106106b6576101008083540402835291602001916106e1565b820191906000526020600020905b8154815290600101906020018083116106c457829003601f168201915b5050505050905090565b60006106f6826113c0565b506000908152600a60205260409020546001600160a01b031690565b600061071d82610e90565b9050806001600160a01b0316836001600160a01b031614156107905760405162461bcd60e51b815260206004820152602160248201527f4552433732313a20617070726f76616c20746f2063757272656e74206f776e656044820152603960f91b60648201526084015b60405180910390fd5b336001600160a01b03821614806107ac57506107ac813361053e565b61081e5760405162461bcd60e51b815260206004820152603e60248201527f4552433732313a20617070726f76652063616c6c6572206973206e6f7420746f60448201527f6b656e206f776e6572206e6f7220617070726f76656420666f7220616c6c00006064820152608401610787565b610828838361141f565b505050565b600d546001600160a01b031633146108765760405162461bcd60e51b815260206004820152600c60248201526b155b985d5d1a1bdc9a5e995960a21b6044820152606401610787565b600d5460ff600160a01b90910416151581151514156108c55760405162461bcd60e51b815260206004820152600b60248201526a105b1c9958591e481cd95d60aa1b6044820152606401610787565b600d8054911515600160a01b0260ff60a01b19909216919091179055565b6108eb611366565b82811461092e5760405162461bcd60e51b8152602060048201526011602482015270082e4e4c2f2e640c8dedce840dac2e8c6d607b1b6044820152606401610787565b6000805b828110156109725783838281811061094c5761094c612221565b905060200201358261095e919061224d565b91508061096a81612265565b915050610932565b506127108111156109bc5760405162461bcd60e51b81526020600482015260146024820152730546f74616c20736861726573203e2031303030360641b6044820152606401610787565b6109c860036000611cbe565b60005b84811015610a8657600360405180604001604052808888858181106109f2576109f2612221565b9050602002016020810190610a0791906120f2565b6001600160a01b03168152602001868685818110610a2757610a27612221565b60209081029290920135909252835460018082018655600095865294829020845160029092020180546001600160a01b0319166001600160a01b0390921691909117815592015191909201555080610a7e81612265565b9150506109cb565b505050505050565b610a98338261148d565b610ab45760405162461bcd60e51b815260040161078790612280565b61082883838361150c565b6000805481908190600160a01b900460ff1615610b2857600085815260026020526040902054610b0b5761271060015485610afa91906122ce565b610b049190612303565b9050610b2c565b60008581526002602052604090205461271090610afa90866122ce565b5060005b6005546001600160a01b0316925090505b9250929050565b600d546001600160a01b03163314610b8d5760405162461bcd60e51b815260206004820152600c60248201526b155b985d5d1a1bdc9a5e995960a21b6044820152606401610787565b610b9782826116b3565b5050565b610b8d611366565b61082883838360405180602001604052806000815250611178565b610bc6611366565b6000805460ff60a81b1916600160a81b179055565b606060046000838152602001908152602001600020805480602002602001604051908101604052809291908181526020016000905b82821015610c58576000848152602090819020604080518082019091526002850290910180546001600160a01b03168252600190810154828401529083529092019101610c10565b505050509050919050565b60046020528160005260406000208181548110610c7f57600080fd5b6000918252602090912060029091020180546001909101546001600160a01b039091169250905082565b610cb1611366565b838214610cf45760405162461bcd60e51b8152602060048201526011602482015270082e4e4c2f2e640c8dedce840dac2e8c6d607b1b6044820152606401610787565b6000805b83811015610d3857848482818110610d1257610d12612221565b9050602002013582610d24919061224d565b915080610d3081612265565b915050610cf8565b50612710811115610d825760405162461bcd60e51b81526020600482015260146024820152730546f74616c20736861726573203e2031303030360641b6044820152606401610787565b6000828152600460205260408120610d9991611cbe565b60005b85811015610e6857600460008481526020019081526020016000206040518060400160405280898985818110610dd457610dd4612221565b9050602002016020810190610de991906120f2565b6001600160a01b03168152602001878785818110610e0957610e09612221565b60209081029290920135909252835460018082018655600095865294829020845160029092020180546001600160a01b0319166001600160a01b0390921691909117815592015191909201555080610e6081612265565b915050610d9c565b50505050505050565b6000818152600860205260408120546001600160a01b031615156105fd565b6000818152600860205260408120546001600160a01b0316806105fd5760405162461bcd60e51b8152602060048201526018602482015277115490cdcc8c4e881a5b9d985b1a59081d1bdad95b88125160421b6044820152606401610787565b6060610efa6116cd565b905090565b60006001600160a01b038216610f695760405162461bcd60e51b815260206004820152602960248201527f4552433732313a2061646472657373207a65726f206973206e6f7420612076616044820152683634b21037bbb732b960b91b6064820152608401610787565b506001600160a01b031660009081526009602052604090205490565b610f8d611366565b610f9760006116dc565b565b610fa1611366565b6001600160a01b038116610fec5760405162461bcd60e51b815260206004820152601260248201527143616e74207365742030206164647265737360701b6044820152606401610787565b6005546001600160a01b03828116911614156110555760405162461bcd60e51b815260206004820152602260248201527f54686973206164647265737320697320616c726561647920612072656365697660448201526132b960f11b6064820152608401610787565b600580546001600160a01b0319166001600160a01b0392909216919091179055565b606060078054610668906121e6565b60606003805480602002602001604051908101604052809291908181526020016000905b828210156110f2576000848152602090819020604080518082019091526002850290910180546001600160a01b031682526001908101548284015290835290920191016110aa565b50505050905090565b611103611366565b6000805460ff60a01b1916600160a01b179055565b610b9733838361172c565b61112b611366565b6123288111156111735760405162461bcd60e51b8152602060048201526013602482015272526f79616c7479206973206f7665722039302560681b6044820152606401610787565b600155565b611182338361148d565b61119e5760405162461bcd60e51b815260040161078790612280565b6111aa848484846117fb565b50505050565b6111b8611366565b6123288211156112005760405162461bcd60e51b8152602060048201526013602482015272526f79616c7479206973206f7665722039302560681b6044820152606401610787565b600090815260026020526040902055565b6060600061121d6116cd565b9050600081511161123d5760405180602001604052806000815250611268565b806112478461182e565b604051602001611258929190612317565b6040516020818303038152906040525b9392505050565b611277611366565b6000805460ff60a01b19169055565b61128e611366565b6001600160a01b0381166112f35760405162461bcd60e51b815260206004820152602660248201527f4f776e61626c653a206e6577206f776e657220697320746865207a65726f206160448201526564647265737360d01b6064820152608401610787565b6112fc816116dc565b50565b611307611366565b6000805460ff60a81b19169055565b60006001600160e01b031982166380ac58cd60e01b148061134757506001600160e01b03198216635b5e139f60e01b145b806105fd57506301ffc9a760e01b6001600160e01b03198316146105fd565b6000546001600160a01b03163314610f975760405162461bcd60e51b815260206004820181905260248201527f4f776e61626c653a2063616c6c6572206973206e6f7420746865206f776e65726044820152606401610787565b6000818152600860205260409020546001600160a01b03166112fc5760405162461bcd60e51b8152602060048201526018602482015277115490cdcc8c4e881a5b9d985b1a59081d1bdad95b88125160421b6044820152606401610787565b6000818152600a6020526040902080546001600160a01b0319166001600160a01b038416908117909155819061145482610e90565b6001600160a01b03167f8c5be1e5ebec7d5bd14f71427d1e84f3dd0314c0f7b2291e5b200ac8c7c3b92560405160405180910390a45050565b60008061149983610e90565b9050806001600160a01b0316846001600160a01b031614806114e057506001600160a01b038082166000908152600b602090815260408083209388168352929052205460ff165b806115045750836001600160a01b03166114f9846106eb565b6001600160a01b0316145b949350505050565b826001600160a01b031661151f82610e90565b6001600160a01b0316146115835760405162461bcd60e51b815260206004820152602560248201527f4552433732313a207472616e736665722066726f6d20696e636f72726563742060448201526437bbb732b960d91b6064820152608401610787565b6001600160a01b0382166115e55760405162461bcd60e51b8152602060048201526024808201527f4552433732313a207472616e7366657220746f20746865207a65726f206164646044820152637265737360e01b6064820152608401610787565b6115f083838361192c565b6115fb60008261141f565b6001600160a01b0383166000908152600960205260408120805460019290611624908490612346565b90915550506001600160a01b038216600090815260096020526040812080546001929061165290849061224d565b909155505060008181526008602052604080822080546001600160a01b0319166001600160a01b0386811691821790925591518493918716917fddf252ad1be2c89b69c2b068fc378daa952ba7f163c4a11628f55a4df523b3ef91a4505050565b610b978282604051806020016040528060008152506119bb565b6060600c8054610668906121e6565b600080546001600160a01b038381166001600160a01b0319831681178455604051919092169283917f8be0079c531659141344cd1fd0a4f28419497f9722a3daafe3b4186f6b6457e09190a35050565b816001600160a01b0316836001600160a01b0316141561178e5760405162461bcd60e51b815260206004820152601960248201527f4552433732313a20617070726f766520746f2063616c6c6572000000000000006044820152606401610787565b6001600160a01b038381166000818152600b6020908152604080832094871680845294825291829020805460ff191686151590811790915591519182527f17307eab39ab6107e8899845ad3d59bd9653f200f220920489ca2b5937696c31910160405180910390a3505050565b61180684848461150c565b611812848484846119ee565b6111aa5760405162461bcd60e51b81526004016107879061235d565b6060816118525750506040805180820190915260018152600360fc1b602082015290565b8160005b811561187c578061186681612265565b91506118759050600a83612303565b9150611856565b60008167ffffffffffffffff81111561189757611897611d4d565b6040519080825280601f01601f1916602001820160405280156118c1576020820181803683370190505b5090505b8415611504576118d6600183612346565b91506118e3600a866123af565b6118ee90603061224d565b60f81b81838151811061190357611903612221565b60200101906001600160f81b031916908160001a905350611925600a86612303565b94506118c5565b600d54600090600160a01b900460ff16158061194757503332145b8061195c5750600d546001600160a01b031633145b9050806111aa5760405162461bcd60e51b815260206004820152602760248201527f5265737472696374656420746f2044656372797074206d61726b6574706c616360448201526665206f6e6c792160c81b6064820152608401610787565b6119c58383611aec565b6119d260008484846119ee565b6108285760405162461bcd60e51b81526004016107879061235d565b60006001600160a01b0384163b15611ae157604051630a85bd0160e11b81526001600160a01b0385169063150b7a0290611a329033908990889088906004016123c3565b6020604051808303816000875af1925050508015611a6d575060408051601f3d908101601f19168201909252611a6a91810190612400565b60015b611ac7573d808015611a9b576040519150601f19603f3d011682016040523d82523d6000602084013e611aa0565b606091505b508051611abf5760405162461bcd60e51b81526004016107879061235d565b805181602001fd5b6001600160e01b031916630a85bd0160e11b149050611504565b506001949350505050565b6001600160a01b038216611b425760405162461bcd60e51b815260206004820181905260248201527f4552433732313a206d696e7420746f20746865207a65726f20616464726573736044820152606401610787565b6000818152600860205260409020546001600160a01b031615611ba75760405162461bcd60e51b815260206004820152601c60248201527f4552433732313a20746f6b656e20616c7265616479206d696e746564000000006044820152606401610787565b611bb36000838361192c565b6001600160a01b0382166000908152600960205260408120805460019290611bdc90849061224d565b909155505060008181526008602052604080822080546001600160a01b0319166001600160a01b03861690811790915590518392907fddf252ad1be2c89b69c2b068fc378daa952ba7f163c4a11628f55a4df523b3ef908290a45050565b828054611c46906121e6565b90600052602060002090601f016020900481019282611c685760008555611cae565b82601f10611c8157805160ff1916838001178555611cae565b82800160010185558215611cae579182015b82811115611cae578251825591602001919060010190611c93565b50611cba929150611cdf565b5090565b50805460008255600202906000526020600020908101906112fc9190611cf4565b5b80821115611cba5760008155600101611ce0565b5b80821115611cba5780546001600160a01b031916815560006001820155600201611cf5565b6001600160e01b0319811681146112fc57600080fd5b600060208284031215611d4257600080fd5b813561126881611d1a565b634e487b7160e01b600052604160045260246000fd5b600067ffffffffffffffff80841115611d7e57611d7e611d4d565b604051601f8501601f19908116603f01168101908282118183101715611da657611da6611d4d565b81604052809350858152868686011115611dbf57600080fd5b858560208301376000602087830101525050509392505050565b600060208284031215611deb57600080fd5b813567ffffffffffffffff811115611e0257600080fd5b8201601f81018413611e1357600080fd5b61150484823560208401611d63565b60005b83811015611e3d578181015183820152602001611e25565b838111156111aa5750506000910152565b60008151808452611e66816020860160208601611e22565b601f01601f19169290920160200192915050565b6020815260006112686020830184611e4e565b600060208284031215611e9f57600080fd5b5035919050565b80356001600160a01b0381168114611ebd57600080fd5b919050565b60008060408385031215611ed557600080fd5b611ede83611ea6565b946020939093013593505050565b80358015158114611ebd57600080fd5b600060208284031215611f0e57600080fd5b61126882611eec565b60008083601f840112611f2957600080fd5b50813567ffffffffffffffff811115611f4157600080fd5b6020830191508360208260051b8501011115610b3d57600080fd5b60008060008060408587031215611f7257600080fd5b843567ffffffffffffffff80821115611f8a57600080fd5b611f9688838901611f17565b90965094506020870135915080821115611faf57600080fd5b50611fbc87828801611f17565b95989497509550505050565b600080600060608486031215611fdd57600080fd5b611fe684611ea6565b9250611ff460208501611ea6565b9150604084013590509250925092565b6000806040838503121561201757600080fd5b50508035926020909101359150565b602080825282518282018190526000919060409081850190868401855b8281101561207157815180516001600160a01b03168552860151868501529284019290850190600101612043565b5091979650505050505050565b60008060008060006060868803121561209657600080fd5b853567ffffffffffffffff808211156120ae57600080fd5b6120ba89838a01611f17565b909750955060208801359150808211156120d357600080fd5b506120e088828901611f17565b96999598509660400135949350505050565b60006020828403121561210457600080fd5b61126882611ea6565b6000806040838503121561212057600080fd5b61212983611ea6565b915061213760208401611eec565b90509250929050565b6000806000806080858703121561215657600080fd5b61215f85611ea6565b935061216d60208601611ea6565b925060408501359150606085013567ffffffffffffffff81111561219057600080fd5b8501601f810187136121a157600080fd5b6121b087823560208401611d63565b91505092959194509250565b600080604083850312156121cf57600080fd5b6121d883611ea6565b915061213760208401611ea6565b600181811c908216806121fa57607f821691505b6020821081141561221b57634e487b7160e01b600052602260045260246000fd5b50919050565b634e487b7160e01b600052603260045260246000fd5b634e487b7160e01b600052601160045260246000fd5b6000821982111561226057612260612237565b500190565b600060001982141561227957612279612237565b5060010190565b6020808252602e908201527f4552433732313a2063616c6c6572206973206e6f7420746f6b656e206f776e6560408201526d1c881b9bdc88185c1c1c9bdd995960921b606082015260800190565b60008160001904831182151516156122e8576122e8612237565b500290565b634e487b7160e01b600052601260045260246000fd5b600082612312576123126122ed565b500490565b60008351612329818460208801611e22565b83519083019061233d818360208801611e22565b01949350505050565b60008282101561235857612358612237565b500390565b60208082526032908201527f4552433732313a207472616e7366657220746f206e6f6e20455243373231526560408201527131b2b4bb32b91034b6b83632b6b2b73a32b960711b606082015260800190565b6000826123be576123be6122ed565b500690565b6001600160a01b03858116825284166020820152604081018390526080606082018190526000906123f690830184611e4e565b9695505050505050565b60006020828403121561241257600080fd5b815161126881611d1a56fea26469706673582212206462e482c35d430f301824ef7e1633b8b30af6838e8c55c787214648d3d9107a64736f6c634300080a0033",
  "linkReferences": {},
  "deployedLinkReferences": {}
}