{
  "_format": "hh-sol-artifact-1",
  "contractName": "SimpleERC1155",
  "sourceName": "contracts/SimpleERC1155.sol",
  "abi": [
    {
      "inputs": [
        {
          "internalType": "address",
          "name": "owner_",
          "type": "address"
        },
        {
          "internalType": "address",
          "name": "lnMarketplaceAddress_",
          "type": "address"
        },
        {
          "internalType": "string",
          "name": "uri_",
          "type": "string"
        },
        {
          "internalType": "uint256",
          "name": "royalty_",
          "type": "uint256"
        }
      ],
      "stateMutability": "nonpayable",
      "type": "constructor"
    },
    {
      "anonymous": false,
      "inputs": [
        {
          "indexed": true,
          "internalType": "address",
          "name": "account",
          "type": "address"
        },
        {
          "indexed": true,
          "internalType": "address",
          "name": "operator",
          "type": "address"
        },
        {
          "indexed": false,
          "internalType": "bool",
          "name": "approved",
          "type": "bool"
        }
      ],
      "name": "ApprovalForAll",
      "type": "event"
    },
    {
      "anonymous": false,
      "inputs": [
        {
          "indexed": true,
          "internalType": "address",
          "name": "previousOwner",
          "type": "address"
        },
        {
          "indexed": true,
          "internalType": "address",
          "name": "newOwner",
          "type": "address"
        }
      ],
      "name": "OwnershipTransferred",
      "type": "event"
    },
    {
      "anonymous": false,
      "inputs": [
        {
          "indexed": true,
          "internalType": "address",
          "name": "operator",
          "type": "address"
        },
        {
          "indexed": true,
          "internalType": "address",
          "name": "from",
          "type": "address"
        },
        {
          "indexed": true,
          "internalType": "address",
          "name": "to",
          "type": "address"
        },
        {
          "indexed": false,
          "internalType": "uint256[]",
          "name": "ids",
          "type": "uint256[]"
        },
        {
          "indexed": false,
          "internalType": "uint256[]",
          "name": "values",
          "type": "uint256[]"
        }
      ],
      "name": "TransferBatch",
      "type": "event"
    },
    {
      "anonymous": false,
      "inputs": [
        {
          "indexed": true,
          "internalType": "address",
          "name": "operator",
          "type": "address"
        },
        {
          "indexed": true,
          "internalType": "address",
          "name": "from",
          "type": "address"
        },
        {
          "indexed": true,
          "internalType": "address",
          "name": "to",
          "type": "address"
        },
        {
          "indexed": false,
          "internalType": "uint256",
          "name": "id",
          "type": "uint256"
        },
        {
          "indexed": false,
          "internalType": "uint256",
          "name": "value",
          "type": "uint256"
        }
      ],
      "name": "TransferSingle",
      "type": "event"
    },
    {
      "anonymous": false,
      "inputs": [
        {
          "indexed": false,
          "internalType": "string",
          "name": "value",
          "type": "string"
        },
        {
          "indexed": true,
          "internalType": "uint256",
          "name": "id",
          "type": "uint256"
        }
      ],
      "name": "URI",
      "type": "event"
    },
    {
      "anonymous": false,
      "inputs": [
        {
          "indexed": false,
          "internalType": "string",
          "name": "_uri",
          "type": "string"
        }
      ],
      "name": "UpdatedURI",
      "type": "event"
    },
    {
      "inputs": [
        {
          "internalType": "address",
          "name": "account",
          "type": "address"
        },
        {
          "internalType": "uint256",
          "name": "id",
          "type": "uint256"
        }
      ],
      "name": "balanceOf",
      "outputs": [
        {
          "internalType": "uint256",
          "name": "",
          "type": "uint256"
        }
      ],
      "stateMutability": "view",
      "type": "function"
    },
    {
      "inputs": [
        {
          "internalType": "address[]",
          "name": "accounts",
          "type": "address[]"
        },
        {
          "internalType": "uint256[]",
          "name": "ids",
          "type": "uint256[]"
        }
      ],
      "name": "balanceOfBatch",
      "outputs": [
        {
          "internalType": "uint256[]",
          "name": "",
          "type": "uint256[]"
        }
      ],
      "stateMutability": "view",
      "type": "function"
    },
    {
      "inputs": [],
      "name": "disableRoyalty",
      "outputs": [],
      "stateMutability": "nonpayable",
      "type": "function"
    },
    {
      "inputs": [],
      "name": "disableRoyaltyDistribution",
      "outputs": [],
      "stateMutability": "nonpayable",
      "type": "function"
    },
    {
      "inputs": [],
      "name": "enableRoyalty",
      "outputs": [],
      "stateMutability": "nonpayable",
      "type": "function"
    },
    {
      "inputs": [],
      "name": "enableRoyaltyDistribution",
      "outputs": [],
      "stateMutability": "nonpayable",
      "type": "function"
    },
    {
      "inputs": [
        {
          "internalType": "bool",
          "name": "_forbidden",
          "type": "bool"
        }
      ],
      "name": "forbidToTradeOnOtherMarketplaces",
      "outputs": [],
      "stateMutability": "nonpayable",
      "type": "function"
    },
    {
      "inputs": [],
      "name": "getDefaultRoyaltyDistribution",
      "outputs": [
        {
          "components": [
            {
              "internalType": "address",
              "name": "collaborator",
              "type": "address"
            },
            {
              "internalType": "uint256",
              "name": "share",
              "type": "uint256"
            }
          ],
          "internalType": "struct RoyaltyDistribution.RoyaltyShare[]",
          "name": "",
          "type": "tuple[]"
        }
      ],
      "stateMutability": "view",
      "type": "function"
    },
    {
      "inputs": [
        {
          "internalType": "uint256",
          "name": "tokenId",
          "type": "uint256"
        }
      ],
      "name": "getTokenRoyaltyDistribution",
      "outputs": [
        {
          "components": [
            {
              "internalType": "address",
              "name": "collaborator",
              "type": "address"
            },
            {
              "internalType": "uint256",
              "name": "share",
              "type": "uint256"
            }
          ],
          "internalType": "struct RoyaltyDistribution.RoyaltyShare[]",
          "name": "",
          "type": "tuple[]"
        }
      ],
      "stateMutability": "view",
      "type": "function"
    },
    {
      "inputs": [],
      "name": "globalRoyalty",
      "outputs": [
        {
          "internalType": "uint256",
          "name": "",
          "type": "uint256"
        }
      ],
      "stateMutability": "view",
      "type": "function"
    },
    {
      "inputs": [],
      "name": "globalRoyaltyEnabled",
      "outputs": [
        {
          "internalType": "bool",
          "name": "",
          "type": "bool"
        }
      ],
      "stateMutability": "view",
      "type": "function"
    },
    {
      "inputs": [
        {
          "internalType": "address",
          "name": "account",
          "type": "address"
        },
        {
          "internalType": "address",
          "name": "operator",
          "type": "address"
        }
      ],
      "name": "isApprovedForAll",
      "outputs": [
        {
          "internalType": "bool",
          "name": "",
          "type": "bool"
        }
      ],
      "stateMutability": "view",
      "type": "function"
    },
    {
      "inputs": [
        {
          "internalType": "address",
          "name": "to",
          "type": "address"
        },
        {
          "internalType": "uint256",
          "name": "tokenId",
          "type": "uint256"
        },
        {
          "internalType": "uint256",
          "name": "amount",
          "type": "uint256"
        }
      ],
      "name": "lazyMint",
      "outputs": [],
      "stateMutability": "nonpayable",
      "type": "function"
    },
    {
      "inputs": [],
      "name": "lnMarketplaceAddress",
      "outputs": [
        {
          "internalType": "address",
          "name": "",
          "type": "address"
        }
      ],
      "stateMutability": "view",
      "type": "function"
    },
    {
      "inputs": [
        {
          "internalType": "address",
          "name": "account",
          "type": "address"
        },
        {
          "internalType": "uint256",
          "name": "id",
          "type": "uint256"
        },
        {
          "internalType": "uint256",
          "name": "amount",
          "type": "uint256"
        }
      ],
      "name": "mint",
      "outputs": [],
      "stateMutability": "nonpayable",
      "type": "function"
    },
    {
      "inputs": [
        {
          "internalType": "address",
          "name": "to",
          "type": "address"
        },
        {
          "internalType": "uint256[]",
          "name": "ids",
          "type": "uint256[]"
        },
        {
          "internalType": "uint256[]",
          "name": "amounts",
          "type": "uint256[]"
        }
      ],
      "name": "mintBatch",
      "outputs": [],
      "stateMutability": "nonpayable",
      "type": "function"
    },
    {
      "inputs": [],
      "name": "owner",
      "outputs": [
        {
          "internalType": "address",
          "name": "",
          "type": "address"
        }
      ],
      "stateMutability": "view",
      "type": "function"
    },
    {
      "inputs": [],
      "name": "renounceOwnership",
      "outputs": [],
      "stateMutability": "nonpayable",
      "type": "function"
    },
    {
      "inputs": [],
      "name": "royaltyDistributionEnabled",
      "outputs": [
        {
          "internalType": "bool",
          "name": "",
          "type": "bool"
        }
      ],
      "stateMutability": "view",
      "type": "function"
    },
    {
      "inputs": [
        {
          "internalType": "uint256",
          "name": "_tokenId",
          "type": "uint256"
        },
        {
          "internalType": "uint256",
          "name": "_salePrice",
          "type": "uint256"
        }
      ],
      "name": "royaltyInfo",
      "outputs": [
        {
          "internalType": "address",
          "name": "receiver",
          "type": "address"
        },
        {
          "internalType": "uint256",
          "name": "royaltyAmount",
          "type": "uint256"
        }
      ],
      "stateMutability": "view",
      "type": "function"
    },
    {
      "inputs": [],
      "name": "royaltyReceiver",
      "outputs": [
        {
          "internalType": "address",
          "name": "",
          "type": "address"
        }
      ],
      "stateMutability": "view",
      "type": "function"
    },
    {
      "inputs": [
        {
          "internalType": "address",
          "name": "from",
          "type": "address"
        },
        {
          "internalType": "address",
          "name": "to",
          "type": "address"
        },
        {
          "internalType": "uint256[]",
          "name": "ids",
          "type": "uint256[]"
        },
        {
          "internalType": "uint256[]",
          "name": "amounts",
          "type": "uint256[]"
        },
        {
          "internalType": "bytes",
          "name": "data",
          "type": "bytes"
        }
      ],
      "name": "safeBatchTransferFrom",
      "outputs": [],
      "stateMutability": "nonpayable",
      "type": "function"
    },
    {
      "inputs": [
        {
          "internalType": "address",
          "name": "from",
          "type": "address"
        },
        {
          "internalType": "address",
          "name": "to",
          "type": "address"
        },
        {
          "internalType": "uint256",
          "name": "id",
          "type": "uint256"
        },
        {
          "internalType": "uint256",
          "name": "amount",
          "type": "uint256"
        },
        {
          "internalType": "bytes",
          "name": "data",
          "type": "bytes"
        }
      ],
      "name": "safeTransferFrom",
      "outputs": [],
      "stateMutability": "nonpayable",
      "type": "function"
    },
    {
      "inputs": [
        {
          "internalType": "address",
          "name": "operator",
          "type": "address"
        },
        {
          "internalType": "bool",
          "name": "approved",
          "type": "bool"
        }
      ],
      "name": "setApprovalForAll",
      "outputs": [],
      "stateMutability": "nonpayable",
      "type": "function"
    },
    {
      "inputs": [
        {
          "internalType": "address[]",
          "name": "collaborators",
          "type": "address[]"
        },
        {
          "internalType": "uint256[]",
          "name": "shares",
          "type": "uint256[]"
        }
      ],
      "name": "setDefaultRoyaltyDistribution",
      "outputs": [],
      "stateMutability": "nonpayable",
      "type": "function"
    },
    {
      "inputs": [
        {
          "internalType": "uint256",
          "name": "_royalty",
          "type": "uint256"
        }
      ],
      "name": "setGlobalRoyalty",
      "outputs": [],
      "stateMutability": "nonpayable",
      "type": "function"
    },
    {
      "inputs": [
        {
          "internalType": "address",
          "name": "newRoyaltyReceiver",
          "type": "address"
        }
      ],
      "name": "setRoyaltyReceiver",
      "outputs": [],
      "stateMutability": "nonpayable",
      "type": "function"
    },
    {
      "inputs": [
        {
          "internalType": "uint256",
          "name": "_royalty",
          "type": "uint256"
        },
        {
          "internalType": "uint256",
          "name": "_tokenId",
          "type": "uint256"
        }
      ],
      "name": "setTokenRoyalty",
      "outputs": [],
      "stateMutability": "nonpayable",
      "type": "function"
    },
    {
      "inputs": [
        {
          "internalType": "address[]",
          "name": "collaborators",
          "type": "address[]"
        },
        {
          "internalType": "uint256[]",
          "name": "shares",
          "type": "uint256[]"
        },
        {
          "internalType": "uint256",
          "name": "tokenId",
          "type": "uint256"
        }
      ],
      "name": "setTokenRoyaltyDistribution",
      "outputs": [],
      "stateMutability": "nonpayable",
      "type": "function"
    },
    {
      "inputs": [
        {
          "internalType": "string",
          "name": "uri_",
          "type": "string"
        }
      ],
      "name": "setURI",
      "outputs": [],
      "stateMutability": "nonpayable",
      "type": "function"
    },
    {
      "inputs": [
        {
          "internalType": "bytes4",
          "name": "interfaceId",
          "type": "bytes4"
        }
      ],
      "name": "supportsInterface",
      "outputs": [
        {
          "internalType": "bool",
          "name": "",
          "type": "bool"
        }
      ],
      "stateMutability": "view",
      "type": "function"
    },
    {
      "inputs": [
        {
          "internalType": "uint256",
          "name": "",
          "type": "uint256"
        },
        {
          "internalType": "uint256",
          "name": "",
          "type": "uint256"
        }
      ],
      "name": "tokenCollaboratorsRoyaltyShare",
      "outputs": [
        {
          "internalType": "address",
          "name": "collaborator",
          "type": "address"
        },
        {
          "internalType": "uint256",
          "name": "share",
          "type": "uint256"
        }
      ],
      "stateMutability": "view",
      "type": "function"
    },
    {
      "inputs": [
        {
          "internalType": "uint256",
          "name": "",
          "type": "uint256"
        }
      ],
      "name": "tokenRoyalty",
      "outputs": [
        {
          "internalType": "uint256",
          "name": "",
          "type": "uint256"
        }
      ],
      "stateMutability": "view",
      "type": "function"
    },
    {
      "inputs": [
        {
          "internalType": "address",
          "name": "newOwner",
          "type": "address"
        }
      ],
      "name": "transferOwnership",
      "outputs": [],
      "stateMutability": "nonpayable",
      "type": "function"
    },
    {
      "inputs": [
        {
          "internalType": "uint256",
          "name": "",
          "type": "uint256"
        }
      ],
      "name": "uri",
      "outputs": [
        {
          "internalType": "string",
          "name": "",
          "type": "string"
        }
      ],
      "stateMutability": "view",
      "type": "function"
    }
  ],
  "bytecode": "0x60806040526000805461ffff60a01b191661010160a01b1790556009805460ff60a01b191690553480156200003357600080fd5b5060405162002ce738038062002ce78339810160408190526200005691620002de565b83838383816200006633620000bb565b62000071816200010b565b506001819055620000828462000124565b5050600580546001600160a01b039384166001600160a01b03199182161790915560098054929093169116179055506200042592505050565b600080546001600160a01b038381166001600160a01b0319831681178455604051919092169283917f8be0079c531659141344cd1fd0a4f28419497f9722a3daafe3b4186f6b6457e09190a35050565b80516200012090600890602084019062000205565b5050565b6200012e620001a7565b6001600160a01b038116620001995760405162461bcd60e51b815260206004820152602660248201527f4f776e61626c653a206e6577206f776e657220697320746865207a65726f206160448201526564647265737360d01b60648201526084015b60405180910390fd5b620001a481620000bb565b50565b6000546001600160a01b03163314620002035760405162461bcd60e51b815260206004820181905260248201527f4f776e61626c653a2063616c6c6572206973206e6f7420746865206f776e6572604482015260640162000190565b565b8280546200021390620003e8565b90600052602060002090601f01602090048101928262000237576000855562000282565b82601f106200025257805160ff191683800117855562000282565b8280016001018555821562000282579182015b828111156200028257825182559160200191906001019062000265565b506200029092915062000294565b5090565b5b8082111562000290576000815560010162000295565b80516001600160a01b0381168114620002c357600080fd5b919050565b634e487b7160e01b600052604160045260246000fd5b60008060008060808587031215620002f557600080fd5b6200030085620002ab565b9350602062000311818701620002ab565b60408701519094506001600160401b03808211156200032f57600080fd5b818801915088601f8301126200034457600080fd5b815181811115620003595762000359620002c8565b604051601f8201601f19908116603f01168101908382118183101715620003845762000384620002c8565b816040528281528b868487010111156200039d57600080fd5b600093505b82841015620003c15784840186015181850187015292850192620003a2565b82841115620003d35760008684830101525b60609a909a0151989b979a5050505050505050565b600181811c90821680620003fd57607f821691505b602082108114156200041f57634e487b7160e01b600052602260045260246000fd5b50919050565b6128b280620004356000396000f3fe608060405234801561001057600080fd5b50600436106102105760003560e01c80634e6836ab11610125578063bc189d38116100ad578063ee2dd6d11161007c578063ee2dd6d1146104ce578063f242432a146104d6578063f2fde38b146104e9578063f8ef6b71146104fc578063fa79b0951461050457600080fd5b8063bc189d3814610458578063d81d0a151461046b578063e8c152051461047e578063e985e9c51461049257600080fd5b80639fbc8713116100f45780639fbc87131461040f5780639fc28f8114610422578063a0c7489d1461042a578063a22cb46514610432578063b0de83a31461044557600080fd5b80634e6836ab146103bc578063715018a6146103cf5780638da5cb5b146103d75780638dc251e3146103fc57600080fd5b80631ff4a420116101a85780634453752011610177578063445375201461035857806348375f8414610360578063483b81ef1461038057806349d72147146103895780634e1273f41461039c57600080fd5b80631ff4a420146102e057806327414163146103005780632a55205a146103135780632eb2c2d61461034557600080fd5b80630e89341c116101e45780630e89341c1461028757806313036577146102a7578063156e29f6146102ba5780631763b4a8146102cd57600080fd5b8062fdd58e14610215578063012e46b61461023b57806301ffc9a71461025f57806302fe530514610272575b600080fd5b610228610223366004611cd5565b610517565b6040519081526020015b60405180910390f35b60005461024f90600160a81b900460ff1681565b6040519015158152602001610232565b61024f61026d366004611d15565b6105af565b610285610280366004611dd8565b610610565b005b61029a610295366004611e28565b61065b565b6040516102329190611e8e565b6102856102b5366004611eb1565b6106ef565b6102856102c8366004611ecc565b6107a5565b6102856102db366004611f43565b6107d8565b6102286102ee366004611e28565b60026020526000908152604090205481565b61028561030e366004611ecc565b610983565b610326610321366004611fae565b6109cc565b604080516001600160a01b039093168352602083019190915201610232565b610285610353366004612084565b610a51565b610285610a9d565b61037361036e366004611e28565b610aba565b604051610232919061212d565b61022860015481565b610326610397366004611fae565b610b42565b6103af6103aa366004612185565b610b88565b604051610232919061228a565b6102856103ca36600461229d565b610cb1565b610285610e79565b6000546001600160a01b03165b6040516001600160a01b039091168152602001610232565b61028561040a366004612310565b610e8d565b6005546103e4906001600160a01b031681565b610373610f6b565b610285610fe0565b61028561044036600461232b565b610ffd565b610285610453366004611e28565b61100c565b610285610466366004611fae565b611061565b61028561047936600461235e565b6110c2565b60005461024f90600160a01b900460ff1681565b61024f6104a03660046123d1565b6001600160a01b03918216600090815260076020908152604080832093909416825291909152205460ff1690565b6102856110f0565b6102856104e43660046123fb565b611107565b6102856104f7366004612310565b61114c565b6102856111c5565b6009546103e4906001600160a01b031681565b60006001600160a01b0383166105875760405162461bcd60e51b815260206004820152602a60248201527f455243313135353a2061646472657373207a65726f206973206e6f742061207660448201526930b634b21037bbb732b960b11b60648201526084015b60405180910390fd5b5060009081526006602090815260408083206001600160a01b03949094168352929052205490565b60006001600160e01b0319821663152a902d60e11b14806105e057506001600160e01b0319821663155c914760e31b145b806105fb57506001600160e01b03198216631189900560e11b145b8061060a575061060a826111dc565b92915050565b61061861122c565b61062181611286565b7fbabd00c52f3ac8b66511ad0c5d9680f0417ad32bf6c8fede4cb2d45820353bc5816040516106509190611e8e565b60405180910390a150565b60606008805461066a9061245f565b80601f01602080910402602001604051908101604052809291908181526020018280546106969061245f565b80156106e35780601f106106b8576101008083540402835291602001916106e3565b820191906000526020600020905b8154815290600101906020018083116106c657829003601f168201915b50505050509050919050565b6009546001600160a01b031633146107385760405162461bcd60e51b815260206004820152600c60248201526b155b985d5d1a1bdc9a5e995960a21b604482015260640161057e565b60095460ff600160a01b90910416151581151514156107875760405162461bcd60e51b815260206004820152600b60248201526a105b1c9958591e481cd95d60aa1b604482015260640161057e565b60098054911515600160a01b0260ff60a01b19909216919091179055565b6107ad61122c565b6107d383838360405180604001604052806002815260200161060f60f31b815250611299565b505050565b6107e061122c565b8281146108235760405162461bcd60e51b8152602060048201526011602482015270082e4e4c2f2e640c8dedce840dac2e8c6d607b1b604482015260640161057e565b6000805b82811015610867578383828181106108415761084161249a565b905060200201358261085391906124c6565b91508061085f816124de565b915050610827565b506127108111156108b15760405162461bcd60e51b81526020600482015260146024820152730546f74616c20736861726573203e2031303030360641b604482015260640161057e565b6108bd60036000611bd9565b60005b8481101561097b57600360405180604001604052808888858181106108e7576108e761249a565b90506020020160208101906108fc9190612310565b6001600160a01b0316815260200186868581811061091c5761091c61249a565b60209081029290920135909252835460018082018655600095865294829020845160029092020180546001600160a01b0319166001600160a01b0390921691909117815592015191909201555080610973816124de565b9150506108c0565b505050505050565b6009546001600160a01b031633146107ad5760405162461bcd60e51b815260206004820152600c60248201526b155b985d5d1a1bdc9a5e995960a21b604482015260640161057e565b6000805481908190600160a01b900460ff1615610a3557600085815260026020526040902054610a185761271060015485610a0791906124f9565b610a119190612518565b9050610a39565b60008581526002602052604090205461271090610a0790866124f9565b5060005b6005546001600160a01b0316925090505b9250929050565b6001600160a01b038516331480610a6d5750610a6d85336104a0565b610a895760405162461bcd60e51b815260040161057e9061253a565b610a96858585858561137b565b5050505050565b610aa561122c565b6000805460ff60a81b1916600160a81b179055565b606060046000838152602001908152602001600020805480602002602001604051908101604052809291908181526020016000905b82821015610b37576000848152602090819020604080518082019091526002850290910180546001600160a01b03168252600190810154828401529083529092019101610aef565b505050509050919050565b60046020528160005260406000208181548110610b5e57600080fd5b6000918252602090912060029091020180546001909101546001600160a01b039091169250905082565b60608151835114610bed5760405162461bcd60e51b815260206004820152602960248201527f455243313135353a206163636f756e747320616e6420696473206c656e677468604482015268040dad2e6dac2e8c6d60bb1b606482015260840161057e565b600083516001600160401b03811115610c0857610c08611d39565b604051908082528060200260200182016040528015610c31578160200160208202803683370190505b50905060005b8451811015610ca957610c7c858281518110610c5557610c5561249a565b6020026020010151858381518110610c6f57610c6f61249a565b6020026020010151610517565b828281518110610c8e57610c8e61249a565b6020908102919091010152610ca2816124de565b9050610c37565b509392505050565b610cb961122c565b838214610cfc5760405162461bcd60e51b8152602060048201526011602482015270082e4e4c2f2e640c8dedce840dac2e8c6d607b1b604482015260640161057e565b6000805b83811015610d4057848482818110610d1a57610d1a61249a565b9050602002013582610d2c91906124c6565b915080610d38816124de565b915050610d00565b50612710811115610d8a5760405162461bcd60e51b81526020600482015260146024820152730546f74616c20736861726573203e2031303030360641b604482015260640161057e565b6000828152600460205260408120610da191611bd9565b60005b85811015610e7057600460008481526020019081526020016000206040518060400160405280898985818110610ddc57610ddc61249a565b9050602002016020810190610df19190612310565b6001600160a01b03168152602001878785818110610e1157610e1161249a565b60209081029290920135909252835460018082018655600095865294829020845160029092020180546001600160a01b0319166001600160a01b0390921691909117815592015191909201555080610e68816124de565b915050610da4565b50505050505050565b610e8161122c565b610e8b6000611520565b565b610e9561122c565b6001600160a01b038116610ee05760405162461bcd60e51b815260206004820152601260248201527143616e74207365742030206164647265737360701b604482015260640161057e565b6005546001600160a01b0382811691161415610f495760405162461bcd60e51b815260206004820152602260248201527f54686973206164647265737320697320616c726561647920612072656365697660448201526132b960f11b606482015260840161057e565b600580546001600160a01b0319166001600160a01b0392909216919091179055565b60606003805480602002602001604051908101604052809291908181526020016000905b82821015610fd7576000848152602090819020604080518082019091526002850290910180546001600160a01b03168252600190810154828401529083529092019101610f8f565b50505050905090565b610fe861122c565b6000805460ff60a01b1916600160a01b179055565b611008338383611570565b5050565b61101461122c565b61232881111561105c5760405162461bcd60e51b8152602060048201526013602482015272526f79616c7479206973206f7665722039302560681b604482015260640161057e565b600155565b61106961122c565b6123288211156110b15760405162461bcd60e51b8152602060048201526013602482015272526f79616c7479206973206f7665722039302560681b604482015260640161057e565b600090815260026020526040902055565b6110ca61122c565b6107d383838360405180604001604052806002815260200161060f60f31b815250611651565b6110f861122c565b6000805460ff60a01b19169055565b6001600160a01b038516331480611123575061112385336104a0565b61113f5760405162461bcd60e51b815260040161057e9061253a565b610a9685858585856117ac565b61115461122c565b6001600160a01b0381166111b95760405162461bcd60e51b815260206004820152602660248201527f4f776e61626c653a206e6577206f776e657220697320746865207a65726f206160448201526564647265737360d01b606482015260840161057e565b6111c281611520565b50565b6111cd61122c565b6000805460ff60a81b19169055565b60006001600160e01b03198216636cdb3d1360e11b148061120d57506001600160e01b031982166303a24d0760e21b145b8061060a57506301ffc9a760e01b6001600160e01b031983161461060a565b6000546001600160a01b03163314610e8b5760405162461bcd60e51b815260206004820181905260248201527f4f776e61626c653a2063616c6c6572206973206e6f7420746865206f776e6572604482015260640161057e565b8051611008906008906020840190611bfa565b6001600160a01b0384166112bf5760405162461bcd60e51b815260040161057e90612589565b3360006112cb856118e8565b905060006112d8856118e8565b90506112e983600089858589611933565b60008681526006602090815260408083206001600160a01b038b1684529091528120805487929061131b9084906124c6565b909155505060408051878152602081018790526001600160a01b03808a1692600092918716917fc3d58168c5ae7397731d063d5bbf3d657854427343f4c083240f7aacaa2d0f62910160405180910390a4610e70836000898989896119c2565b815183511461139c5760405162461bcd60e51b815260040161057e906125ca565b6001600160a01b0384166113c25760405162461bcd60e51b815260040161057e90612612565b336113d1818787878787611933565b60005b84518110156114ba5760008582815181106113f1576113f161249a565b60200260200101519050600085838151811061140f5761140f61249a565b60209081029190910181015160008481526006835260408082206001600160a01b038e1683529093529190912054909150818110156114605760405162461bcd60e51b815260040161057e90612657565b60008381526006602090815260408083206001600160a01b038e8116855292528083208585039055908b1682528120805484929061149f9084906124c6565b92505081905550505050806114b3906124de565b90506113d4565b50846001600160a01b0316866001600160a01b0316826001600160a01b03167f4a39dc06d4c0dbc64b70af90fd698a233a518aa5d07e595d983b8c0526c8f7fb878760405161150a9291906126a1565b60405180910390a461097b818787878787611b1e565b600080546001600160a01b038381166001600160a01b0319831681178455604051919092169283917f8be0079c531659141344cd1fd0a4f28419497f9722a3daafe3b4186f6b6457e09190a35050565b816001600160a01b0316836001600160a01b031614156115e45760405162461bcd60e51b815260206004820152602960248201527f455243313135353a2073657474696e6720617070726f76616c20737461747573604482015268103337b91039b2b63360b91b606482015260840161057e565b6001600160a01b03838116600081815260076020908152604080832094871680845294825291829020805460ff191686151590811790915591519182527f17307eab39ab6107e8899845ad3d59bd9653f200f220920489ca2b5937696c31910160405180910390a3505050565b6001600160a01b0384166116775760405162461bcd60e51b815260040161057e90612589565b81518351146116985760405162461bcd60e51b815260040161057e906125ca565b336116a881600087878787611933565b60005b8451811015611744578381815181106116c6576116c661249a565b6020026020010151600660008784815181106116e4576116e461249a565b602002602001015181526020019081526020016000206000886001600160a01b03166001600160a01b03168152602001908152602001600020600082825461172c91906124c6565b9091555081905061173c816124de565b9150506116ab565b50846001600160a01b031660006001600160a01b0316826001600160a01b03167f4a39dc06d4c0dbc64b70af90fd698a233a518aa5d07e595d983b8c0526c8f7fb87876040516117959291906126a1565b60405180910390a4610a9681600087878787611b1e565b6001600160a01b0384166117d25760405162461bcd60e51b815260040161057e90612612565b3360006117de856118e8565b905060006117eb856118e8565b90506117fb838989858589611933565b60008681526006602090815260408083206001600160a01b038c1684529091529020548581101561183e5760405162461bcd60e51b815260040161057e90612657565b60008781526006602090815260408083206001600160a01b038d8116855292528083208985039055908a1682528120805488929061187d9084906124c6565b909155505060408051888152602081018890526001600160a01b03808b16928c821692918816917fc3d58168c5ae7397731d063d5bbf3d657854427343f4c083240f7aacaa2d0f62910160405180910390a46118dd848a8a8a8a8a6119c2565b505050505050505050565b604080516001808252818301909252606091600091906020808301908036833701905050905082816000815181106119225761192261249a565b602090810291909101015292915050565b600954600090600160a01b900460ff16158061194e57503332145b8061196357506009546001600160a01b031633145b905080610e705760405162461bcd60e51b815260206004820152602760248201527f5265737472696374656420746f2044656372797074206d61726b6574706c616360448201526665206f6e6c792160c81b606482015260840161057e565b6001600160a01b0384163b1561097b5760405163f23a6e6160e01b81526001600160a01b0385169063f23a6e6190611a0690899089908890889088906004016126cf565b6020604051808303816000875af1925050508015611a41575060408051601f3d908101601f19168201909252611a3e91810190612714565b60015b611aee57611a4d612731565b806308c379a01415611a875750611a6261274d565b80611a6d5750611a89565b8060405162461bcd60e51b815260040161057e9190611e8e565b505b60405162461bcd60e51b815260206004820152603460248201527f455243313135353a207472616e7366657220746f206e6f6e20455243313135356044820152732932b1b2b4bb32b91034b6b83632b6b2b73a32b960611b606482015260840161057e565b6001600160e01b0319811663f23a6e6160e01b14610e705760405162461bcd60e51b815260040161057e906127d6565b6001600160a01b0384163b1561097b5760405163bc197c8160e01b81526001600160a01b0385169063bc197c8190611b62908990899088908890889060040161281e565b6020604051808303816000875af1925050508015611b9d575060408051601f3d908101601f19168201909252611b9a91810190612714565b60015b611ba957611a4d612731565b6001600160e01b0319811663bc197c8160e01b14610e705760405162461bcd60e51b815260040161057e906127d6565b50805460008255600202906000526020600020908101906111c29190611c7e565b828054611c069061245f565b90600052602060002090601f016020900481019282611c285760008555611c6e565b82601f10611c4157805160ff1916838001178555611c6e565b82800160010185558215611c6e579182015b82811115611c6e578251825591602001919060010190611c53565b50611c7a929150611ca4565b5090565b5b80821115611c7a5780546001600160a01b031916815560006001820155600201611c7f565b5b80821115611c7a5760008155600101611ca5565b80356001600160a01b0381168114611cd057600080fd5b919050565b60008060408385031215611ce857600080fd5b611cf183611cb9565b946020939093013593505050565b6001600160e01b0319811681146111c257600080fd5b600060208284031215611d2757600080fd5b8135611d3281611cff565b9392505050565b634e487b7160e01b600052604160045260246000fd5b601f8201601f191681016001600160401b0381118282101715611d7457611d74611d39565b6040525050565b60006001600160401b03831115611d9457611d94611d39565b604051611dab601f8501601f191660200182611d4f565b809150838152848484011115611dc057600080fd5b83836020830137600060208583010152509392505050565b600060208284031215611dea57600080fd5b81356001600160401b03811115611e0057600080fd5b8201601f81018413611e1157600080fd5b611e2084823560208401611d7b565b949350505050565b600060208284031215611e3a57600080fd5b5035919050565b6000815180845260005b81811015611e6757602081850181015186830182015201611e4b565b81811115611e79576000602083870101525b50601f01601f19169290920160200192915050565b602081526000611d326020830184611e41565b80358015158114611cd057600080fd5b600060208284031215611ec357600080fd5b611d3282611ea1565b600080600060608486031215611ee157600080fd5b611eea84611cb9565b95602085013595506040909401359392505050565b60008083601f840112611f1157600080fd5b5081356001600160401b03811115611f2857600080fd5b6020830191508360208260051b8501011115610a4a57600080fd5b60008060008060408587031215611f5957600080fd5b84356001600160401b0380821115611f7057600080fd5b611f7c88838901611eff565b90965094506020870135915080821115611f9557600080fd5b50611fa287828801611eff565b95989497509550505050565b60008060408385031215611fc157600080fd5b50508035926020909101359150565b60006001600160401b03821115611fe957611fe9611d39565b5060051b60200190565b600082601f83011261200457600080fd5b8135602061201182611fd0565b60405161201e8282611d4f565b83815260059390931b850182019282810191508684111561203e57600080fd5b8286015b848110156120595780358352918301918301612042565b509695505050505050565b600082601f83011261207557600080fd5b611d3283833560208501611d7b565b600080600080600060a0868803121561209c57600080fd5b6120a586611cb9565b94506120b360208701611cb9565b935060408601356001600160401b03808211156120cf57600080fd5b6120db89838a01611ff3565b945060608801359150808211156120f157600080fd5b6120fd89838a01611ff3565b9350608088013591508082111561211357600080fd5b5061212088828901612064565b9150509295509295909350565b602080825282518282018190526000919060409081850190868401855b8281101561217857815180516001600160a01b0316855286015186850152928401929085019060010161214a565b5091979650505050505050565b6000806040838503121561219857600080fd5b82356001600160401b03808211156121af57600080fd5b818501915085601f8301126121c357600080fd5b813560206121d082611fd0565b6040516121dd8282611d4f565b83815260059390931b85018201928281019150898411156121fd57600080fd5b948201945b838610156122225761221386611cb9565b82529482019490820190612202565b9650508601359250508082111561223857600080fd5b5061224585828601611ff3565b9150509250929050565b600081518084526020808501945080840160005b8381101561227f57815187529582019590820190600101612263565b509495945050505050565b602081526000611d32602083018461224f565b6000806000806000606086880312156122b557600080fd5b85356001600160401b03808211156122cc57600080fd5b6122d889838a01611eff565b909750955060208801359150808211156122f157600080fd5b506122fe88828901611eff565b96999598509660400135949350505050565b60006020828403121561232257600080fd5b611d3282611cb9565b6000806040838503121561233e57600080fd5b61234783611cb9565b915061235560208401611ea1565b90509250929050565b60008060006060848603121561237357600080fd5b61237c84611cb9565b925060208401356001600160401b038082111561239857600080fd5b6123a487838801611ff3565b935060408601359150808211156123ba57600080fd5b506123c786828701611ff3565b9150509250925092565b600080604083850312156123e457600080fd5b6123ed83611cb9565b915061235560208401611cb9565b600080600080600060a0868803121561241357600080fd5b61241c86611cb9565b945061242a60208701611cb9565b9350604086013592506060860135915060808601356001600160401b0381111561245357600080fd5b61212088828901612064565b600181811c9082168061247357607f821691505b6020821081141561249457634e487b7160e01b600052602260045260246000fd5b50919050565b634e487b7160e01b600052603260045260246000fd5b634e487b7160e01b600052601160045260246000fd5b600082198211156124d9576124d96124b0565b500190565b60006000198214156124f2576124f26124b0565b5060010190565b6000816000190483118215151615612513576125136124b0565b500290565b60008261253557634e487b7160e01b600052601260045260246000fd5b500490565b6020808252602f908201527f455243313135353a2063616c6c6572206973206e6f7420746f6b656e206f776e60408201526e195c881b9bdc88185c1c1c9bdd9959608a1b606082015260800190565b60208082526021908201527f455243313135353a206d696e7420746f20746865207a65726f206164647265736040820152607360f81b606082015260800190565b60208082526028908201527f455243313135353a2069647320616e6420616d6f756e7473206c656e677468206040820152670dad2e6dac2e8c6d60c31b606082015260800190565b60208082526025908201527f455243313135353a207472616e7366657220746f20746865207a65726f206164604082015264647265737360d81b606082015260800190565b6020808252602a908201527f455243313135353a20696e73756666696369656e742062616c616e636520666f60408201526939103a3930b739b332b960b11b606082015260800190565b6040815260006126b4604083018561224f565b82810360208401526126c6818561224f565b95945050505050565b6001600160a01b03868116825285166020820152604081018490526060810183905260a06080820181905260009061270990830184611e41565b979650505050505050565b60006020828403121561272657600080fd5b8151611d3281611cff565b600060033d111561274a5760046000803e5060005160e01c5b90565b600060443d101561275b5790565b6040516003193d81016004833e81513d6001600160401b03816024840111818411171561278a57505050505090565b82850191508151818111156127a25750505050505090565b843d87010160208285010111156127bc5750505050505090565b6127cb60208286010187611d4f565b509095945050505050565b60208082526028908201527f455243313135353a204552433131353552656365697665722072656a656374656040820152676420746f6b656e7360c01b606082015260800190565b6001600160a01b0386811682528516602082015260a06040820181905260009061284a9083018661224f565b828103606084015261285c818661224f565b905082810360808401526128708185611e41565b9897505050505050505056fea2646970667358221220ae46561bd5f726adb8fe719b20f84ecefe268166052cec308c13eac4c068672964736f6c634300080a0033",
  "linkReferences": {},
  "deployedLinkReferences": {}
}